{
  "_format": "hh-sol-artifact-1",
  "contractName": "Splitwise",
  "sourceName": "contracts/mycontract.sol",
  "abi": [
    {
      "inputs": [
        {
          "internalType": "address",
          "name": "creditor",
          "type": "address"
        },
        {
          "internalType": "uint32",
          "name": "amount",
          "type": "uint32"
        },
        {
          "internalType": "address[]",
          "name": "cycle",
          "type": "address[]"
        }
      ],
      "name": "add_IOU",
      "outputs": [],
      "stateMutability": "nonpayable",
      "type": "function"
    },
    {
      "inputs": [
        {
          "internalType": "address",
          "name": "debtor",
          "type": "address"
        },
        {
          "internalType": "address",
          "name": "creditor",
          "type": "address"
        }
      ],
      "name": "lookup",
      "outputs": [
        {
          "internalType": "uint256",
          "name": "",
          "type": "uint256"
        }
      ],
      "stateMutability": "view",
      "type": "function"
    },
    {
      "inputs": [
        {
          "internalType": "address",
          "name": "",
          "type": "address"
        },
        {
          "internalType": "address",
          "name": "",
          "type": "address"
        }
      ],
      "name": "table",
      "outputs": [
        {
          "internalType": "uint32",
          "name": "",
          "type": "uint32"
        }
      ],
      "stateMutability": "view",
      "type": "function"
    }
  ],
  "bytecode": "0x608060405234801561001057600080fd5b506109d6806100206000396000f3fe608060405234801561001057600080fd5b50600436106100415760003560e01c80631d8d417614610046578063713584a614610076578063dd033b8d146100a6575b600080fd5b610060600480360381019061005b9190610616565b6100c2565b60405161006d9190610675565b60405180910390f35b610090600480360381019061008b9190610616565b6100f4565b60405161009d91906106a9565b60405180910390f35b6100c060048036038101906100bb9190610755565b610190565b005b60006020528160005260406000206020528060005260406000206000915091509054906101000a900463ffffffff1681565b60008060008473ffffffffffffffffffffffffffffffffffffffff1673ffffffffffffffffffffffffffffffffffffffff16815260200190815260200160002060008373ffffffffffffffffffffffffffffffffffffffff1673ffffffffffffffffffffffffffffffffffffffff16815260200190815260200160002060009054906101000a900463ffffffff1663ffffffff16905092915050565b6000828290500361025857826000803373ffffffffffffffffffffffffffffffffffffffff1673ffffffffffffffffffffffffffffffffffffffff16815260200190815260200160002060008673ffffffffffffffffffffffffffffffffffffffff1673ffffffffffffffffffffffffffffffffffffffff16815260200190815260200160002060008282829054906101000a900463ffffffff1661023591906107f8565b92506101000a81548163ffffffff021916908363ffffffff1602179055506105a8565b600083905060005b6001848490506102709190610830565b81101561038d57600080600086868581811061028f5761028e610864565b5b90506020020160208101906102a49190610893565b73ffffffffffffffffffffffffffffffffffffffff1673ffffffffffffffffffffffffffffffffffffffff168152602001908152602001600020600086866001866102ef91906108c0565b8181106102ff576102fe610864565b5b90506020020160208101906103149190610893565b73ffffffffffffffffffffffffffffffffffffffff1673ffffffffffffffffffffffffffffffffffffffff16815260200190815260200160002060009054906101000a900463ffffffff1690508263ffffffff168163ffffffff161015610379578092505b508080610385906108f4565b915050610260565b5060005b6001848490506103a19190610830565b8163ffffffff1610156104df578160008086868563ffffffff168181106103cb576103ca610864565b5b90506020020160208101906103e09190610893565b73ffffffffffffffffffffffffffffffffffffffff1673ffffffffffffffffffffffffffffffffffffffff1681526020019081526020016000206000868660018661042b91906107f8565b63ffffffff1681811061044157610440610864565b5b90506020020160208101906104569190610893565b73ffffffffffffffffffffffffffffffffffffffff1673ffffffffffffffffffffffffffffffffffffffff16815260200190815260200160002060008282829054906101000a900463ffffffff166104ae919061093c565b92506101000a81548163ffffffff021916908363ffffffff16021790555080806104d790610974565b915050610391565b5080846104ec919061093c565b9350836000803373ffffffffffffffffffffffffffffffffffffffff1673ffffffffffffffffffffffffffffffffffffffff16815260200190815260200160002060008773ffffffffffffffffffffffffffffffffffffffff1673ffffffffffffffffffffffffffffffffffffffff16815260200190815260200160002060008282829054906101000a900463ffffffff1661058891906107f8565b92506101000a81548163ffffffff021916908363ffffffff160217905550505b50505050565b600080fd5b600080fd5b600073ffffffffffffffffffffffffffffffffffffffff82169050919050565b60006105e3826105b8565b9050919050565b6105f3816105d8565b81146105fe57600080fd5b50565b600081359050610610816105ea565b92915050565b6000806040838503121561062d5761062c6105ae565b5b600061063b85828601610601565b925050602061064c85828601610601565b9150509250929050565b600063ffffffff82169050919050565b61066f81610656565b82525050565b600060208201905061068a6000830184610666565b92915050565b6000819050919050565b6106a381610690565b82525050565b60006020820190506106be600083018461069a565b92915050565b6106cd81610656565b81146106d857600080fd5b50565b6000813590506106ea816106c4565b92915050565b600080fd5b600080fd5b600080fd5b60008083601f840112610715576107146106f0565b5b8235905067ffffffffffffffff811115610732576107316106f5565b5b60208301915083602082028301111561074e5761074d6106fa565b5b9250929050565b6000806000806060858703121561076f5761076e6105ae565b5b600061077d87828801610601565b945050602061078e878288016106db565b935050604085013567ffffffffffffffff8111156107af576107ae6105b3565b5b6107bb878288016106ff565b925092505092959194509250565b7f4e487b7100000000000000000000000000000000000000000000000000000000600052601160045260246000fd5b600061080382610656565b915061080e83610656565b9250828201905063ffffffff81111561082a576108296107c9565b5b92915050565b600061083b82610690565b915061084683610690565b925082820390508181111561085e5761085d6107c9565b5b92915050565b7f4e487b7100000000000000000000000000000000000000000000000000000000600052603260045260246000fd5b6000602082840312156108a9576108a86105ae565b5b60006108b784828501610601565b91505092915050565b60006108cb82610690565b91506108d683610690565b92508282019050808211156108ee576108ed6107c9565b5b92915050565b60006108ff82610690565b91507fffffffffffffffffffffffffffffffffffffffffffffffffffffffffffffffff8203610931576109306107c9565b5b600182019050919050565b600061094782610656565b915061095283610656565b9250828203905063ffffffff81111561096e5761096d6107c9565b5b92915050565b600061097f82610656565b915063ffffffff8203610995576109946107c9565b5b60018201905091905056fea26469706673582212200e059c1637b7f9af464c4e61136e3c9606e9b6a6716be646eb0d3ed080b03f7664736f6c63430008110033",
  "linkReferences": {},
  "deployedLinkReferences": {}
}